{
  "contractName": "RealEstate",
  "abi": [
    {
      "inputs": [],
      "stateMutability": "nonpayable",
      "type": "constructor"
    },
    {
      "anonymous": false,
      "inputs": [
        {
          "indexed": false,
          "internalType": "uint256",
          "name": "propertyId",
          "type": "uint256"
        },
        {
          "indexed": false,
          "internalType": "address",
          "name": "owner",
          "type": "address"
        },
        {
          "indexed": false,
          "internalType": "string",
          "name": "propertyType",
          "type": "string"
        },
        {
          "indexed": false,
          "internalType": "string",
          "name": "imageURL",
          "type": "string"
        }
      ],
      "name": "PropertyAdded",
      "type": "event"
    },
    {
      "inputs": [],
      "name": "nextPropertyId",
      "outputs": [
        {
          "internalType": "uint256",
          "name": "",
          "type": "uint256"
        }
      ],
      "stateMutability": "view",
      "type": "function"
    },
    {
      "inputs": [],
      "name": "owner",
      "outputs": [
        {
          "internalType": "address",
          "name": "",
          "type": "address"
        }
      ],
      "stateMutability": "view",
      "type": "function"
    },
    {
      "inputs": [
        {
          "internalType": "uint256",
          "name": "",
          "type": "uint256"
        }
      ],
      "name": "properties",
      "outputs": [
        {
          "internalType": "uint128",
          "name": "price",
          "type": "uint128"
        },
        {
          "internalType": "bool",
          "name": "forSale",
          "type": "bool"
        },
        {
          "internalType": "uint128",
          "name": "rentPayment",
          "type": "uint128"
        },
        {
          "internalType": "bool",
          "name": "forRent",
          "type": "bool"
        },
        {
          "internalType": "bool",
          "name": "rented",
          "type": "bool"
        },
        {
          "internalType": "address",
          "name": "renter",
          "type": "address"
        },
        {
          "internalType": "uint256",
          "name": "rentDueDate",
          "type": "uint256"
        },
        {
          "internalType": "address payable",
          "name": "owner",
          "type": "address"
        },
        {
          "internalType": "string",
          "name": "propertyAddress",
          "type": "string"
        },
        {
          "internalType": "string",
          "name": "propertyType",
          "type": "string"
        },
        {
          "internalType": "string",
          "name": "imageURL",
          "type": "string"
        }
      ],
      "stateMutability": "view",
      "type": "function"
    },
    {
      "inputs": [
        {
          "internalType": "uint256",
          "name": "",
          "type": "uint256"
        }
      ],
      "name": "propertyIds",
      "outputs": [
        {
          "internalType": "uint256",
          "name": "",
          "type": "uint256"
        }
      ],
      "stateMutability": "view",
      "type": "function"
    },
    {
      "inputs": [
        {
          "internalType": "string",
          "name": "_propertyAddress",
          "type": "string"
        },
        {
          "internalType": "string",
          "name": "_propertyType",
          "type": "string"
        },
        {
          "internalType": "string",
          "name": "_imageURL",
          "type": "string"
        },
        {
          "internalType": "uint128",
          "name": "_price",
          "type": "uint128"
        },
        {
          "internalType": "uint128",
          "name": "_rentPayment",
          "type": "uint128"
        }
      ],
      "name": "addProperty",
      "outputs": [],
      "stateMutability": "nonpayable",
      "type": "function"
    },
    {
      "inputs": [
        {
          "internalType": "string",
          "name": "_propertyAddress",
          "type": "string"
        },
        {
          "internalType": "string",
          "name": "_propertyType",
          "type": "string"
        },
        {
          "internalType": "string",
          "name": "_imageURL",
          "type": "string"
        },
        {
          "internalType": "uint128",
          "name": "_price",
          "type": "uint128"
        },
        {
          "internalType": "uint128",
          "name": "rentPayment",
          "type": "uint128"
        },
        {
          "internalType": "bool",
          "name": "forSale",
          "type": "bool"
        },
        {
          "internalType": "bool",
          "name": "forRent",
          "type": "bool"
        }
      ],
      "name": "addPropertyMore",
      "outputs": [],
      "stateMutability": "nonpayable",
      "type": "function"
    },
    {
      "inputs": [
        {
          "internalType": "uint256",
          "name": "_propertyId",
          "type": "uint256"
        }
      ],
      "name": "buyProperty",
      "outputs": [],
      "stateMutability": "payable",
      "type": "function"
    },
    {
      "inputs": [
        {
          "internalType": "uint256",
          "name": "_propertyId",
          "type": "uint256"
        },
        {
          "internalType": "uint128",
          "name": "_price",
          "type": "uint128"
        },
        {
          "internalType": "uint128",
          "name": "_rentPayment",
          "type": "uint128"
        },
        {
          "internalType": "bool",
          "name": "_forSale",
          "type": "bool"
        },
        {
          "internalType": "bool",
          "name": "_forRent",
          "type": "bool"
        }
      ],
      "name": "updateProperty",
      "outputs": [],
      "stateMutability": "nonpayable",
      "type": "function"
    }
  ],
  "bytecode": "0x6080604052336000806101000a81548173ffffffffffffffffffffffffffffffffffffffff021916908373ffffffffffffffffffffffffffffffffffffffff16021790555060006002553480156200005657600080fd5b50620001006040518060400160405280600b81526020017f313233204d61696e2053740000000000000000000000000000000000000000008152506040518060400160405280600581526020017f486f7573650000000000000000000000000000000000000000000000000000008152506040518060c0016040528060848152602001620025766084913968013f306a2409fc0000671bc16d674ec80000620003a860201b60201c565b620001a86040518060400160405280600b81526020017f343536204d61696e2053740000000000000000000000000000000000000000008152506040518060400160405280600981526020017f41706172746d656e7400000000000000000000000000000000000000000000008152506040518060600160405280603781526020016200253f6037913967de0b6b3a76400000670de0b6b3a7640000620003a860201b60201c565b620002516040518060400160405280600b81526020017f373839204d61696e2053740000000000000000000000000000000000000000008152506040518060400160405280600581526020017f486f7573650000000000000000000000000000000000000000000000000000008152506040518060800160405280605d815260200162002646605d9139680176b344f2a78c00006729a2241af62c0000620003a860201b60201c565b620002f96040518060400160405280600b81526020017f313031204d61696e2053740000000000000000000000000000000000000000008152506040518060400160405280600981526020017f41706172746d656e7400000000000000000000000000000000000000000000008152506040518060c00160405280608b8152602001620024b4608b913967f9ccd8a1c5080000671bc16d674ec80000620003a860201b60201c565b620003a26040518060400160405280600b81526020017f313132204d61696e2053740000000000000000000000000000000000000000008152506040518060400160405280600581526020017f486f7573650000000000000000000000000000000000000000000000000000008152506040518060800160405280604c8152602001620025fa604c913968019274b259f65400006729a2241af62c0000620003a860201b60201c565b62000ae8565b60008054906101000a900473ffffffffffffffffffffffffffffffffffffffff1673ffffffffffffffffffffffffffffffffffffffff163373ffffffffffffffffffffffffffffffffffffffff161462000439576040517f08c379a0000000000000000000000000000000000000000000000000000000008152600401620004309062000898565b60405180910390fd5b6000604051806101600160405280846fffffffffffffffffffffffffffffffff168152602001600115158152602001836fffffffffffffffffffffffffffffffff168152602001600115158152602001600015158152602001600073ffffffffffffffffffffffffffffffffffffffff168152602001600081526020013373ffffffffffffffffffffffffffffffffffffffff1681526020018781526020018681526020018581525090508060036000600254815260200190815260200160002060008201518160000160006101000a8154816fffffffffffffffffffffffffffffffff02191690836fffffffffffffffffffffffffffffffff16021790555060208201518160000160106101000a81548160ff02191690831515021790555060408201518160010160006101000a8154816fffffffffffffffffffffffffffffffff02191690836fffffffffffffffffffffffffffffffff16021790555060608201518160010160106101000a81548160ff02191690831515021790555060808201518160010160116101000a81548160ff02191690831515021790555060a08201518160020160006101000a81548173ffffffffffffffffffffffffffffffffffffffff021916908373ffffffffffffffffffffffffffffffffffffffff16021790555060c0820151816003015560e08201518160040160006101000a81548173ffffffffffffffffffffffffffffffffffffffff021916908373ffffffffffffffffffffffffffffffffffffffff1602179055506101008201518160050190805190602001906200068f92919062000761565b50610120820151816006019080519060200190620006af92919062000761565b50610140820151816007019080519060200190620006cf92919062000761565b50905050600160025490806001815401808255809150506001900390600052602060002001600090919091909150557f528e28952cd1c44ac2f0d636642ae9c1e8d9a5103488130ba94a039ba87a3a05600254338787604051620007379493929190620009ad565b60405180910390a160026000815480929190620007549062000a37565b9190505550505050505050565b8280546200076f9062000ab3565b90600052602060002090601f016020900481019282620007935760008555620007df565b82601f10620007ae57805160ff1916838001178555620007df565b82800160010185558215620007df579182015b82811115620007de578251825591602001919060010190620007c1565b5b509050620007ee9190620007f2565b5090565b5b808211156200080d576000816000905550600101620007f3565b5090565b600082825260208201905092915050565b7f4f6e6c7920746865206f776e65722063616e2063616c6c20746869732066756e60008201527f6374696f6e000000000000000000000000000000000000000000000000000000602082015250565b60006200088060258362000811565b91506200088d8262000822565b604082019050919050565b60006020820190508181036000830152620008b38162000871565b9050919050565b6000819050919050565b620008cf81620008ba565b82525050565b600073ffffffffffffffffffffffffffffffffffffffff82169050919050565b60006200090282620008d5565b9050919050565b6200091481620008f5565b82525050565b600081519050919050565b60005b838110156200094557808201518184015260208101905062000928565b8381111562000955576000848401525b50505050565b6000601f19601f8301169050919050565b600062000979826200091a565b62000985818562000811565b93506200099781856020860162000925565b620009a2816200095b565b840191505092915050565b6000608082019050620009c46000830187620008c4565b620009d3602083018662000909565b8181036040830152620009e781856200096c565b90508181036060830152620009fd81846200096c565b905095945050505050565b7f4e487b7100000000000000000000000000000000000000000000000000000000600052601160045260246000fd5b600062000a4482620008ba565b91507fffffffffffffffffffffffffffffffffffffffffffffffffffffffffffffffff820362000a795762000a7862000a08565b5b600182019050919050565b7f4e487b7100000000000000000000000000000000000000000000000000000000600052602260045260246000fd5b6000600282049050600182168062000acc57607f821691505b60208210810362000ae25762000ae162000a84565b5b50919050565b6119bc8062000af86000396000f3fe60806040526004361061007b5760003560e01c80638da5cb5b1161004e5780638da5cb5b14610119578063d03b47f414610144578063f3ba7e3d14610181578063f7b10808146101aa5761007b565b80630edd837b146100805780630fbe0a7e146100a957806339500f34146100d25780636fa830a6146100fd575b600080fd5b34801561008c57600080fd5b506100a760048036038101906100a29190611178565b6101f1565b005b3480156100b557600080fd5b506100d060048036038101906100cb919061127f565b61059d565b005b3480156100de57600080fd5b506100e7610949565b6040516100f4919061138e565b60405180910390f35b610117600480360381019061011291906113d5565b61094f565b005b34801561012557600080fd5b5061012e610afb565b60405161013b9190611443565b60405180910390f35b34801561015057600080fd5b5061016b600480360381019061016691906113d5565b610b1f565b604051610178919061138e565b60405180910390f35b34801561018d57600080fd5b506101a860048036038101906101a3919061145e565b610b43565b005b3480156101b657600080fd5b506101d160048036038101906101cc91906113d5565b610ca2565b6040516101e89b9a999897969594939291906115a0565b60405180910390f35b60008054906101000a900473ffffffffffffffffffffffffffffffffffffffff1673ffffffffffffffffffffffffffffffffffffffff163373ffffffffffffffffffffffffffffffffffffffff161461027f576040517f08c379a0000000000000000000000000000000000000000000000000000000008152600401610276906116d2565b60405180910390fd5b6000604051806101600160405280846fffffffffffffffffffffffffffffffff168152602001600115158152602001836fffffffffffffffffffffffffffffffff168152602001600115158152602001600015158152602001600073ffffffffffffffffffffffffffffffffffffffff168152602001600081526020013373ffffffffffffffffffffffffffffffffffffffff1681526020018781526020018681526020018581525090508060036000600254815260200190815260200160002060008201518160000160006101000a8154816fffffffffffffffffffffffffffffffff02191690836fffffffffffffffffffffffffffffffff16021790555060208201518160000160106101000a81548160ff02191690831515021790555060408201518160010160006101000a8154816fffffffffffffffffffffffffffffffff02191690836fffffffffffffffffffffffffffffffff16021790555060608201518160010160106101000a81548160ff02191690831515021790555060808201518160010160116101000a81548160ff02191690831515021790555060a08201518160020160006101000a81548173ffffffffffffffffffffffffffffffffffffffff021916908373ffffffffffffffffffffffffffffffffffffffff16021790555060c0820151816003015560e08201518160040160006101000a81548173ffffffffffffffffffffffffffffffffffffffff021916908373ffffffffffffffffffffffffffffffffffffffff1602179055506101008201518160050190805190602001906104d3929190610f33565b506101208201518160060190805190602001906104f1929190610f33565b5061014082015181600701908051906020019061050f929190610f33565b50905050600160025490806001815401808255809150506001900390600052602060002001600090919091909150557f528e28952cd1c44ac2f0d636642ae9c1e8d9a5103488130ba94a039ba87a3a0560025433878760405161057594939291906116f2565b60405180910390a16002600081548092919061059090611774565b9190505550505050505050565b60008054906101000a900473ffffffffffffffffffffffffffffffffffffffff1673ffffffffffffffffffffffffffffffffffffffff163373ffffffffffffffffffffffffffffffffffffffff161461062b576040517f08c379a0000000000000000000000000000000000000000000000000000000008152600401610622906116d2565b60405180910390fd5b6000604051806101600160405280866fffffffffffffffffffffffffffffffff1681526020018415158152602001856fffffffffffffffffffffffffffffffff1681526020018315158152602001600015158152602001600073ffffffffffffffffffffffffffffffffffffffff168152602001600081526020013373ffffffffffffffffffffffffffffffffffffffff1681526020018981526020018881526020018781525090508060036000600254815260200190815260200160002060008201518160000160006101000a8154816fffffffffffffffffffffffffffffffff02191690836fffffffffffffffffffffffffffffffff16021790555060208201518160000160106101000a81548160ff02191690831515021790555060408201518160010160006101000a8154816fffffffffffffffffffffffffffffffff02191690836fffffffffffffffffffffffffffffffff16021790555060608201518160010160106101000a81548160ff02191690831515021790555060808201518160010160116101000a81548160ff02191690831515021790555060a08201518160020160006101000a81548173ffffffffffffffffffffffffffffffffffffffff021916908373ffffffffffffffffffffffffffffffffffffffff16021790555060c0820151816003015560e08201518160040160006101000a81548173ffffffffffffffffffffffffffffffffffffffff021916908373ffffffffffffffffffffffffffffffffffffffff16021790555061010082015181600501908051906020019061087d929190610f33565b5061012082015181600601908051906020019061089b929190610f33565b506101408201518160070190805190602001906108b9929190610f33565b50905050600160025490806001815401808255809150506001900390600052602060002001600090919091909150557f528e28952cd1c44ac2f0d636642ae9c1e8d9a5103488130ba94a039ba87a3a0560025433898960405161091f94939291906116f2565b60405180910390a16002600081548092919061093a90611774565b91905055505050505050505050565b60025481565b60006003600083815260200190815260200160002090508060000160109054906101000a900460ff166109b7576040517f08c379a00000000000000000000000000000000000000000000000000000000081526004016109ae90611808565b60405180910390fd5b8060000160009054906101000a90046fffffffffffffffffffffffffffffffff166fffffffffffffffffffffffffffffffff16341015610a2c576040517f08c379a0000000000000000000000000000000000000000000000000000000008152600401610a2390611874565b60405180910390fd5b8060040160009054906101000a900473ffffffffffffffffffffffffffffffffffffffff1673ffffffffffffffffffffffffffffffffffffffff166108fc349081150290604051600060405180830381858888f19350505050158015610a96573d6000803e3d6000fd5b50338160040160006101000a81548173ffffffffffffffffffffffffffffffffffffffff021916908373ffffffffffffffffffffffffffffffffffffffff16021790555060008160000160106101000a81548160ff0219169083151502179055505050565b60008054906101000a900473ffffffffffffffffffffffffffffffffffffffff1681565b60018181548110610b2f57600080fd5b906000526020600020016000915090505481565b60006003600087815260200190815260200160002090508060040160009054906101000a900473ffffffffffffffffffffffffffffffffffffffff1673ffffffffffffffffffffffffffffffffffffffff163373ffffffffffffffffffffffffffffffffffffffff1614610bec576040517f08c379a0000000000000000000000000000000000000000000000000000000008152600401610be390611906565b60405180910390fd5b848160000160006101000a8154816fffffffffffffffffffffffffffffffff02191690836fffffffffffffffffffffffffffffffff160217905550838160010160006101000a8154816fffffffffffffffffffffffffffffffff02191690836fffffffffffffffffffffffffffffffff160217905550828160000160106101000a81548160ff021916908315150217905550818160010160106101000a81548160ff021916908315150217905550505050505050565b60036020528060005260406000206000915090508060000160009054906101000a90046fffffffffffffffffffffffffffffffff16908060000160109054906101000a900460ff16908060010160009054906101000a90046fffffffffffffffffffffffffffffffff16908060010160109054906101000a900460ff16908060010160119054906101000a900460ff16908060020160009054906101000a900473ffffffffffffffffffffffffffffffffffffffff16908060030154908060040160009054906101000a900473ffffffffffffffffffffffffffffffffffffffff1690806005018054610d9490611955565b80601f0160208091040260200160405190810160405280929190818152602001828054610dc090611955565b8015610e0d5780601f10610de257610100808354040283529160200191610e0d565b820191906000526020600020905b815481529060010190602001808311610df057829003601f168201915b505050505090806006018054610e2290611955565b80601f0160208091040260200160405190810160405280929190818152602001828054610e4e90611955565b8015610e9b5780601f10610e7057610100808354040283529160200191610e9b565b820191906000526020600020905b815481529060010190602001808311610e7e57829003601f168201915b505050505090806007018054610eb090611955565b80601f0160208091040260200160405190810160405280929190818152602001828054610edc90611955565b8015610f295780601f10610efe57610100808354040283529160200191610f29565b820191906000526020600020905b815481529060010190602001808311610f0c57829003601f168201915b505050505090508b565b828054610f3f90611955565b90600052602060002090601f016020900481019282610f615760008555610fa8565b82601f10610f7a57805160ff1916838001178555610fa8565b82800160010185558215610fa8579182015b82811115610fa7578251825591602001919060010190610f8c565b5b509050610fb59190610fb9565b5090565b5b80821115610fd2576000816000905550600101610fba565b5090565b6000604051905090565b600080fd5b600080fd5b600080fd5b600080fd5b6000601f19601f8301169050919050565b7f4e487b7100000000000000000000000000000000000000000000000000000000600052604160045260246000fd5b61103d82610ff4565b810181811067ffffffffffffffff8211171561105c5761105b611005565b5b80604052505050565b600061106f610fd6565b905061107b8282611034565b919050565b600067ffffffffffffffff82111561109b5761109a611005565b5b6110a482610ff4565b9050602081019050919050565b82818337600083830152505050565b60006110d36110ce84611080565b611065565b9050828152602081018484840111156110ef576110ee610fef565b5b6110fa8482856110b1565b509392505050565b600082601f83011261111757611116610fea565b5b81356111278482602086016110c0565b91505092915050565b60006fffffffffffffffffffffffffffffffff82169050919050565b61115581611130565b811461116057600080fd5b50565b6000813590506111728161114c565b92915050565b600080600080600060a0868803121561119457611193610fe0565b5b600086013567ffffffffffffffff8111156111b2576111b1610fe5565b5b6111be88828901611102565b955050602086013567ffffffffffffffff8111156111df576111de610fe5565b5b6111eb88828901611102565b945050604086013567ffffffffffffffff81111561120c5761120b610fe5565b5b61121888828901611102565b935050606061122988828901611163565b925050608061123a88828901611163565b9150509295509295909350565b60008115159050919050565b61125c81611247565b811461126757600080fd5b50565b60008135905061127981611253565b92915050565b600080600080600080600060e0888a03121561129e5761129d610fe0565b5b600088013567ffffffffffffffff8111156112bc576112bb610fe5565b5b6112c88a828b01611102565b975050602088013567ffffffffffffffff8111156112e9576112e8610fe5565b5b6112f58a828b01611102565b965050604088013567ffffffffffffffff81111561131657611315610fe5565b5b6113228a828b01611102565b95505060606113338a828b01611163565b94505060806113448a828b01611163565b93505060a06113558a828b0161126a565b92505060c06113668a828b0161126a565b91505092959891949750929550565b6000819050919050565b61138881611375565b82525050565b60006020820190506113a3600083018461137f565b92915050565b6113b281611375565b81146113bd57600080fd5b50565b6000813590506113cf816113a9565b92915050565b6000602082840312156113eb576113ea610fe0565b5b60006113f9848285016113c0565b91505092915050565b600073ffffffffffffffffffffffffffffffffffffffff82169050919050565b600061142d82611402565b9050919050565b61143d81611422565b82525050565b60006020820190506114586000830184611434565b92915050565b600080600080600060a0868803121561147a57611479610fe0565b5b6000611488888289016113c0565b955050602061149988828901611163565b94505060406114aa88828901611163565b93505060606114bb8882890161126a565b92505060806114cc8882890161126a565b9150509295509295909350565b6114e281611130565b82525050565b6114f181611247565b82525050565b600061150282611402565b9050919050565b611512816114f7565b82525050565b600081519050919050565b600082825260208201905092915050565b60005b83811015611552578082015181840152602081019050611537565b83811115611561576000848401525b50505050565b600061157282611518565b61157c8185611523565b935061158c818560208601611534565b61159581610ff4565b840191505092915050565b6000610160820190506115b6600083018e6114d9565b6115c3602083018d6114e8565b6115d0604083018c6114d9565b6115dd606083018b6114e8565b6115ea608083018a6114e8565b6115f760a0830189611434565b61160460c083018861137f565b61161160e0830187611509565b8181036101008301526116248186611567565b90508181036101208301526116398185611567565b905081810361014083015261164e8184611567565b90509c9b505050505050505050505050565b7f4f6e6c7920746865206f776e65722063616e2063616c6c20746869732066756e60008201527f6374696f6e000000000000000000000000000000000000000000000000000000602082015250565b60006116bc602583611523565b91506116c782611660565b604082019050919050565b600060208201905081810360008301526116eb816116af565b9050919050565b6000608082019050611707600083018761137f565b6117146020830186611434565b81810360408301526117268185611567565b9050818103606083015261173a8184611567565b905095945050505050565b7f4e487b7100000000000000000000000000000000000000000000000000000000600052601160045260246000fd5b600061177f82611375565b91507fffffffffffffffffffffffffffffffffffffffffffffffffffffffffffffffff82036117b1576117b0611745565b5b600182019050919050565b7f50726f7065727479206973206e6f7420666f722073616c650000000000000000600082015250565b60006117f2601883611523565b91506117fd826117bc565b602082019050919050565b60006020820190508181036000830152611821816117e5565b9050919050565b7f4e6f7420656e6f7567682066756e64732073656e740000000000000000000000600082015250565b600061185e601583611523565b915061186982611828565b602082019050919050565b6000602082019050818103600083015261188d81611851565b9050919050565b7f4f6e6c7920746865206f776e65722063616e207570646174652074686973207060008201527f726f706572747900000000000000000000000000000000000000000000000000602082015250565b60006118f0602783611523565b91506118fb82611894565b604082019050919050565b6000602082019050818103600083015261191f816118e3565b9050919050565b7f4e487b7100000000000000000000000000000000000000000000000000000000600052602260045260246000fd5b6000600282049050600182168061196d57607f821691505b6020821081036119805761197f611926565b5b5091905056fea2646970667358221220dac581e9a97b353967c1a16cca646a24ca517ea2f7c84a0236b373288e54171164736f6c634300080d003368747470733a2f2f7468756d62732e636974797265616c74792e636f6d2f6173736574732f736d6172742f343030782f776562702f392f39372f393737653935623564363061383563383963633162356465396166303833346635646465383534332f6368656c7365612d737472617475732d3130312d776573742d323474682d7374726565742e6a706768747470733a2f2f67616c696f2e6c742f77702d636f6e74656e742f75706c6f6164732f323032312f30342f43747a5f3030352e6a706768747470733a2f2f7468756d626f722e666f726265732e636f6d2f7468756d626f722f6669742d696e2f393030783531302f68747470733a2f2f7777772e666f726265732e636f6d2f686f6d652d696d70726f76656d656e742f77702d636f6e74656e742f75706c6f6164732f323032322f30372f646f776e6c6f61642d32332e6a706768747470733a2f2f7761796e65686f6d65732e636f6d2f77702d636f6e74656e742f75706c6f6164732f323031352f30362f43656461722d48696c6c2d486f6d6573746561642d312e6a706768747470733a2f2f6d656469612e63617275736f686f6d65732e636f6d2f34362f323032322f392f33302f4461766964736f6e5f2d5f4348325f3030325f2d5f43726f707065645f4c4c6f453854742e3139323078313434302e706e67",
  "immutableReferences": {},
  "source": "// SPDX-License-Identifier: MIT\npragma solidity >=0.4.22 <0.9.0;\n\ncontract RealEstate {\n  address public owner = msg.sender;\n\n  struct Property {\n    uint128 price;\n    bool forSale;\n\n    uint128 rentPayment;\n    bool forRent;\n    bool rented;\n    address renter;\n    uint rentDueDate;\n\n    address payable owner;\n    string propertyAddress;\n    \n    string propertyType;\n    string imageURL;\n  }\n\n  uint[] public propertyIds;\n  uint public nextPropertyId = 0;\n\n  mapping(uint => Property) public properties;\n  \n  //function to add a property\n  function addProperty(string memory _propertyAddress, string memory _propertyType, string memory _imageURL, uint128 _price, uint128 _rentPayment) public onlyOwner {\n    Property memory newProperty = Property({\n      price: _price,\n      forSale: true,\n      rentPayment: _rentPayment,\n      forRent: true,\n      rented: false,\n      renter: address(0x0),\n      rentDueDate: 0,\n      owner: payable(msg.sender),\n      propertyAddress: _propertyAddress,\n      propertyType: _propertyType,\n      imageURL: _imageURL\n    });\n    \n    properties[nextPropertyId] = newProperty;\n\n    propertyIds.push(nextPropertyId);\n\n    emit PropertyAdded(nextPropertyId, msg.sender, _propertyType, _imageURL);\n\n    nextPropertyId++;\n  }\n\n  //function to add a property \n  function addPropertyMore(string memory _propertyAddress, string memory _propertyType, string memory _imageURL, uint128 _price, uint128 rentPayment, bool forSale, bool forRent) public onlyOwner {\n    Property memory newProperty = Property({\n      price: _price,\n      forSale: forSale,\n      rentPayment: rentPayment,\n      forRent: forRent,\n      rented: false,\n      renter: address(0x0),\n      rentDueDate: 0,\n      owner: payable(msg.sender),\n      propertyAddress: _propertyAddress,\n      propertyType: _propertyType,\n      imageURL: _imageURL\n    });\n    \n    properties[nextPropertyId] = newProperty;\n\n    propertyIds.push(nextPropertyId);\n\n    emit PropertyAdded(nextPropertyId, msg.sender, _propertyType, _imageURL);\n\n    nextPropertyId++;\n  }\n\n  //funtion to buy a property\n  function buyProperty(uint _propertyId) external payable {\n    Property storage property = properties[_propertyId];\n\n    require(property.forSale, \"Property is not for sale\");\n    require(msg.value >= property.price, \"Not enough funds sent\");\n\n    property.owner.transfer(msg.value);\n    property.owner = payable(msg.sender);\n    property.forSale = false;\n  }\n\n  //function to update price, forSale, rentPayment, forRent\n  function updateProperty(uint _propertyId, uint128 _price, uint128 _rentPayment, bool _forSale, bool _forRent) external {\n    Property storage property = properties[_propertyId];\n\n    require(msg.sender == property.owner, \"Only the owner can update this property\");\n\n    property.price = _price;\n    property.rentPayment = _rentPayment;\n    property.forSale = _forSale;\n    property.forRent = _forRent;\n  }\n\n\n\n  //constructor to initialize the contract\n  constructor() {\n    addProperty(\"123 Main St\", \"House\", \"https://thumbor.forbes.com/thumbor/fit-in/900x510/https://www.forbes.com/home-improvement/wp-content/uploads/2022/07/download-23.jpg\", 23e18, 2e18);\n    addProperty(\"456 Main St\", \"Apartment\", \"https://galio.lt/wp-content/uploads/2021/04/Ctz_005.jpg\", 16e18, 1e18);\n    addProperty(\"789 Main St\", \"House\", \"https://media.carusohomes.com/46/2022/9/30/Davidson_-_CH2_002_-_Cropped_LLoE8Tt.1920x1440.png\", 27e18, 3e18);\n    addProperty(\"101 Main St\", \"Apartment\", \"https://thumbs.cityrealty.com/assets/smart/400x/webp/9/97/977e95b5d60a85c89cc1b5de9af0834f5dde8543/chelsea-stratus-101-west-24th-street.jpg\", 18e18, 2e18);\n    addProperty(\"112 Main St\", \"House\", \"https://waynehomes.com/wp-content/uploads/2015/06/Cedar-Hill-Homestead-1.jpg\", 29e18, 3e18);\n  }\n\n\n\n\n\n\n//modifiers\n  modifier onlyOwner() {\n    require(msg.sender == owner, \"Only the owner can call this function\");\n    _;\n  }\n\n\n//events\n  event PropertyAdded(uint propertyId, address owner, string propertyType, string imageURL);\n\n  \n}\n",
  "sourcePath": "C:\\Users\\justa\\Documents\\Studijos\\2ndYR\\blockChain\\4 darbas\\web3-tickets\\contracts\\RealEstate.sol",
  "compiler": {
    "name": "solc",
    "version": "0.8.13+commit.abaa5c0e.Emscripten.clang"
  },
  "schemaVersion": "3.4.16",
  "updatedAt": "2023-12-21T09:37:49.078Z",
  "devdoc": {
    "kind": "dev",
    "methods": {},
    "version": 1
  },
  "userdoc": {
    "kind": "user",
    "methods": {},
    "version": 1
  }
}