{
  "contractName": "RealEstateToken",
  "abi": [
    {
      "anonymous": false,
      "inputs": [
        {
          "indexed": true,
          "internalType": "uint256",
          "name": "tokenId",
          "type": "uint256"
        },
        {
          "indexed": false,
          "internalType": "bool",
          "name": "newForRentState",
          "type": "bool"
        }
      ],
      "name": "ForRentStateChanged",
      "type": "event"
    },
    {
      "anonymous": false,
      "inputs": [
        {
          "indexed": true,
          "internalType": "uint256",
          "name": "tokenId",
          "type": "uint256"
        },
        {
          "indexed": false,
          "internalType": "bool",
          "name": "newForSaleState",
          "type": "bool"
        }
      ],
      "name": "ForSaleStateChanged",
      "type": "event"
    },
    {
      "anonymous": false,
      "inputs": [
        {
          "indexed": true,
          "internalType": "uint256",
          "name": "tokenId",
          "type": "uint256"
        },
        {
          "indexed": false,
          "internalType": "uint256",
          "name": "newPrice",
          "type": "uint256"
        }
      ],
      "name": "PriceChanged",
      "type": "event"
    },
    {
      "anonymous": false,
      "inputs": [
        {
          "indexed": true,
          "internalType": "uint256",
          "name": "tokenId",
          "type": "uint256"
        },
        {
          "indexed": true,
          "internalType": "address",
          "name": "renter",
          "type": "address"
        }
      ],
      "name": "RentEnded",
      "type": "event"
    },
    {
      "anonymous": false,
      "inputs": [
        {
          "indexed": true,
          "internalType": "uint256",
          "name": "tokenId",
          "type": "uint256"
        },
        {
          "indexed": false,
          "internalType": "uint256",
          "name": "newRentPrice",
          "type": "uint256"
        }
      ],
      "name": "RentPriceChanged",
      "type": "event"
    },
    {
      "anonymous": false,
      "inputs": [
        {
          "indexed": true,
          "internalType": "uint256",
          "name": "tokenId",
          "type": "uint256"
        },
        {
          "indexed": true,
          "internalType": "address",
          "name": "renter",
          "type": "address"
        },
        {
          "indexed": false,
          "internalType": "uint256",
          "name": "rentalDuration",
          "type": "uint256"
        }
      ],
      "name": "RentStarted",
      "type": "event"
    },
    {
      "anonymous": false,
      "inputs": [
        {
          "indexed": true,
          "internalType": "uint256",
          "name": "tokenId",
          "type": "uint256"
        },
        {
          "indexed": true,
          "internalType": "address",
          "name": "owner",
          "type": "address"
        },
        {
          "indexed": false,
          "internalType": "string",
          "name": "propertyAddress",
          "type": "string"
        },
        {
          "indexed": false,
          "internalType": "string",
          "name": "description",
          "type": "string"
        },
        {
          "indexed": false,
          "internalType": "string",
          "name": "imageURL",
          "type": "string"
        },
        {
          "indexed": false,
          "internalType": "uint256",
          "name": "price",
          "type": "uint256"
        },
        {
          "indexed": false,
          "internalType": "bool",
          "name": "forSale",
          "type": "bool"
        },
        {
          "indexed": false,
          "internalType": "uint256",
          "name": "rentPrice",
          "type": "uint256"
        }
      ],
      "name": "TokenMinted",
      "type": "event"
    },
    {
      "inputs": [
        {
          "internalType": "address",
          "name": "to",
          "type": "address"
        },
        {
          "internalType": "string",
          "name": "propertyAddress",
          "type": "string"
        },
        {
          "internalType": "string",
          "name": "description",
          "type": "string"
        },
        {
          "internalType": "string",
          "name": "imageURL",
          "type": "string"
        },
        {
          "internalType": "uint256",
          "name": "price",
          "type": "uint256"
        },
        {
          "internalType": "bool",
          "name": "forSale",
          "type": "bool"
        },
        {
          "internalType": "bool",
          "name": "forRent",
          "type": "bool"
        },
        {
          "internalType": "uint256",
          "name": "rentPrice",
          "type": "uint256"
        }
      ],
      "name": "mint",
      "outputs": [],
      "stateMutability": "nonpayable",
      "type": "function"
    },
    {
      "inputs": [
        {
          "internalType": "uint256",
          "name": "_tokenId",
          "type": "uint256"
        }
      ],
      "name": "getTokenInfo",
      "outputs": [
        {
          "internalType": "string",
          "name": "propertyAddress",
          "type": "string"
        },
        {
          "internalType": "string",
          "name": "description",
          "type": "string"
        },
        {
          "internalType": "uint256",
          "name": "price",
          "type": "uint256"
        },
        {
          "internalType": "string",
          "name": "imageURL",
          "type": "string"
        },
        {
          "internalType": "bool",
          "name": "forSale",
          "type": "bool"
        },
        {
          "internalType": "bool",
          "name": "forRent",
          "type": "bool"
        },
        {
          "internalType": "uint256",
          "name": "rentPrice",
          "type": "uint256"
        },
        {
          "internalType": "address",
          "name": "currentRenter",
          "type": "address"
        },
        {
          "internalType": "uint256",
          "name": "rentalDuration",
          "type": "uint256"
        },
        {
          "internalType": "uint256",
          "name": "rentalEndTime",
          "type": "uint256"
        }
      ],
      "stateMutability": "view",
      "type": "function"
    },
    {
      "inputs": [
        {
          "internalType": "uint256",
          "name": "_tokenId",
          "type": "uint256"
        },
        {
          "internalType": "bool",
          "name": "newForSaleState",
          "type": "bool"
        }
      ],
      "name": "changeForSaleState",
      "outputs": [],
      "stateMutability": "nonpayable",
      "type": "function"
    },
    {
      "inputs": [
        {
          "internalType": "uint256",
          "name": "_tokenId",
          "type": "uint256"
        },
        {
          "internalType": "bool",
          "name": "newForRentState",
          "type": "bool"
        }
      ],
      "name": "changeForRentState",
      "outputs": [],
      "stateMutability": "nonpayable",
      "type": "function"
    },
    {
      "inputs": [
        {
          "internalType": "uint256",
          "name": "_tokenId",
          "type": "uint256"
        },
        {
          "internalType": "uint256",
          "name": "newPrice",
          "type": "uint256"
        }
      ],
      "name": "changePrice",
      "outputs": [],
      "stateMutability": "nonpayable",
      "type": "function"
    },
    {
      "inputs": [
        {
          "internalType": "uint256",
          "name": "_tokenId",
          "type": "uint256"
        },
        {
          "internalType": "uint256",
          "name": "newRentPrice",
          "type": "uint256"
        }
      ],
      "name": "changeRentPrice",
      "outputs": [],
      "stateMutability": "nonpayable",
      "type": "function"
    },
    {
      "inputs": [
        {
          "internalType": "uint256",
          "name": "_tokenId",
          "type": "uint256"
        },
        {
          "internalType": "uint256",
          "name": "durationInDays",
          "type": "uint256"
        }
      ],
      "name": "rent",
      "outputs": [],
      "stateMutability": "nonpayable",
      "type": "function"
    },
    {
      "inputs": [
        {
          "internalType": "uint256",
          "name": "_tokenId",
          "type": "uint256"
        }
      ],
      "name": "endRent",
      "outputs": [],
      "stateMutability": "nonpayable",
      "type": "function"
    }
  ],
  "bytecode": "0x608060405234801561001057600080fd5b5061169f806100206000396000f3fe608060405234801561001057600080fd5b50600436106100885760003560e01c8063783a112b1161005b578063783a112b146100fd578063797c5359146101195780638c7a63ae14610135578063b3de019c1461016e57610088565b80635f0fbb241461008d5780636114665e146100a957806371868fbf146100c55780637331144c146100e1575b600080fd5b6100a760048036038101906100a29190610ed7565b61018a565b005b6100c360048036038101906100be9190610fe1565b61038e565b005b6100df60048036038101906100da9190611021565b6103e5565b005b6100fb60048036038101906100f69190611021565b61044f565b005b61011760048036038101906101129190610fe1565b6104b9565b005b610133600480360381019061012e9190611061565b6106aa565b005b61014f600480360381019061014a9190611061565b61086b565b6040516101659a99989796959493929190611143565b60405180910390f35b61018860048036038101906101839190610fe1565b610ab8565b005b60008081548092919061019c90611223565b9190505550600060405180610140016040528089815260200188815260200187815260200186815260200185151581526020018415158152602001838152602001600073ffffffffffffffffffffffffffffffffffffffff16815260200160008152602001600081525090508060016000805481526020019081526020016000206000820151816000019080519060200190610239929190610c0e565b506020820151816001019080519060200190610256929190610c0e565b506040820151816002019080519060200190610273929190610c0e565b506060820151816003015560808201518160040160006101000a81548160ff02191690831515021790555060a08201518160040160016101000a81548160ff02191690831515021790555060c0820151816005015560e08201518160060160006101000a81548173ffffffffffffffffffffffffffffffffffffffff021916908373ffffffffffffffffffffffffffffffffffffffff160217905550610100820151816007015561012082015181600801559050508873ffffffffffffffffffffffffffffffffffffffff166000547f8d6555421c5b638725c5d2750127cce2888403c537240d6d597d21a07feb03f68a8a8a8a8a8960405161037b9695949392919061126b565b60405180910390a3505050505050505050565b806001600084815260200190815260200160002060050181905550817f82377ac1dd983c741f66c12c752c2de4bc397fe3ac4a4440fe89f0eb849377b6826040516103d991906112e1565b60405180910390a25050565b806001600084815260200190815260200160002060040160006101000a81548160ff021916908315150217905550817f20e7cf32affc92208a091c00d6b333f719433407776a42f20c508dd2dfe44ce18260405161044391906112fc565b60405180910390a25050565b806001600084815260200190815260200160002060040160016101000a81548160ff021916908315150217905550817f16fba414f3b00e0c1a4825fb0873009c031a8a2341688f93f0a5ba1ffcf4101c826040516104ad91906112fc565b60405180910390a25050565b6104c282610b0f565b610501576040517f08c379a00000000000000000000000000000000000000000000000000000000081526004016104f890611363565b60405180910390fd5b6001600083815260200190815260200160002060040160019054906101000a900460ff16610564576040517f08c379a000000000000000000000000000000000000000000000000000000000815260040161055b906113cf565b60405180910390fd5b61056d82610b7e565b156105ad576040517f08c379a00000000000000000000000000000000000000000000000000000000081526004016105a49061143b565b60405180910390fd5b600062015180826105be919061145b565b426105c991906114b5565b9050336001600085815260200190815260200160002060060160006101000a81548173ffffffffffffffffffffffffffffffffffffffff021916908373ffffffffffffffffffffffffffffffffffffffff1602179055508160016000858152602001908152602001600020600701819055508060016000858152602001908152602001600020600801819055503373ffffffffffffffffffffffffffffffffffffffff16837f9de04ad02b889ff678479eae6bf7cb1a7a31c64bc42a767ab1bc7ffea7a0a3f98460405161069d91906112e1565b60405180910390a3505050565b6106b381610b7e565b6106f2576040517f08c379a00000000000000000000000000000000000000000000000000000000081526004016106e990611557565b60405180910390fd5b6001600082815260200190815260200160002060060160009054906101000a900473ffffffffffffffffffffffffffffffffffffffff1673ffffffffffffffffffffffffffffffffffffffff163373ffffffffffffffffffffffffffffffffffffffff1614610796576040517f08c379a000000000000000000000000000000000000000000000000000000000815260040161078d906115e9565b60405180910390fd5b60006001600083815260200190815260200160002060060160006101000a81548173ffffffffffffffffffffffffffffffffffffffff021916908373ffffffffffffffffffffffffffffffffffffffff16021790555060006001600083815260200190815260200160002060070181905550600060016000838152602001908152602001600020600801819055503373ffffffffffffffffffffffffffffffffffffffff16817f56b5c19db471102362fa03335aa6d41bc46678fd6c0ad439669dd70a5538058160405160405180910390a350565b606080600060606000806000806000806000600160008d815260200190815260200160002090508060000180546108a190611638565b80601f01602080910402602001604051908101604052809291908181526020018280546108cd90611638565b801561091a5780601f106108ef5761010080835404028352916020019161091a565b820191906000526020600020905b8154815290600101906020018083116108fd57829003601f168201915b50505050509a5080600101805461093090611638565b80601f016020809104026020016040519081016040528092919081815260200182805461095c90611638565b80156109a95780601f1061097e576101008083540402835291602001916109a9565b820191906000526020600020905b81548152906001019060200180831161098c57829003601f168201915b50505050509950806003015498508060020180546109c690611638565b80601f01602080910402602001604051908101604052809291908181526020018280546109f290611638565b8015610a3f5780601f10610a1457610100808354040283529160200191610a3f565b820191906000526020600020905b815481529060010190602001808311610a2257829003601f168201915b505050505097508060040160009054906101000a900460ff1696508060040160019054906101000a900460ff169550806005015494508060060160009054906101000a900473ffffffffffffffffffffffffffffffffffffffff1693508060070154925080600801549150509193959799509193959799565b806001600084815260200190815260200160002060030181905550817f8aa4fa52648a6d15edce8a179c792c86f3719d0cc3c572cf90f91948f0f2cb6882604051610b0391906112e1565b60405180910390a25050565b60008073ffffffffffffffffffffffffffffffffffffffff166001600084815260200190815260200160002060060160009054906101000a900473ffffffffffffffffffffffffffffffffffffffff1673ffffffffffffffffffffffffffffffffffffffff1614159050919050565b60008073ffffffffffffffffffffffffffffffffffffffff166001600084815260200190815260200160002060060160009054906101000a900473ffffffffffffffffffffffffffffffffffffffff1673ffffffffffffffffffffffffffffffffffffffff1614158015610c075750426001600084815260200190815260200160002060080154115b9050919050565b828054610c1a90611638565b90600052602060002090601f016020900481019282610c3c5760008555610c83565b82601f10610c5557805160ff1916838001178555610c83565b82800160010185558215610c83579182015b82811115610c82578251825591602001919060010190610c67565b5b509050610c909190610c94565b5090565b5b80821115610cad576000816000905550600101610c95565b5090565b6000604051905090565b600080fd5b600080fd5b600073ffffffffffffffffffffffffffffffffffffffff82169050919050565b6000610cf082610cc5565b9050919050565b610d0081610ce5565b8114610d0b57600080fd5b50565b600081359050610d1d81610cf7565b92915050565b600080fd5b600080fd5b6000601f19601f8301169050919050565b7f4e487b7100000000000000000000000000000000000000000000000000000000600052604160045260246000fd5b610d7682610d2d565b810181811067ffffffffffffffff82111715610d9557610d94610d3e565b5b80604052505050565b6000610da8610cb1565b9050610db48282610d6d565b919050565b600067ffffffffffffffff821115610dd457610dd3610d3e565b5b610ddd82610d2d565b9050602081019050919050565b82818337600083830152505050565b6000610e0c610e0784610db9565b610d9e565b905082815260208101848484011115610e2857610e27610d28565b5b610e33848285610dea565b509392505050565b600082601f830112610e5057610e4f610d23565b5b8135610e60848260208601610df9565b91505092915050565b6000819050919050565b610e7c81610e69565b8114610e8757600080fd5b50565b600081359050610e9981610e73565b92915050565b60008115159050919050565b610eb481610e9f565b8114610ebf57600080fd5b50565b600081359050610ed181610eab565b92915050565b600080600080600080600080610100898b031215610ef857610ef7610cbb565b5b6000610f068b828c01610d0e565b985050602089013567ffffffffffffffff811115610f2757610f26610cc0565b5b610f338b828c01610e3b565b975050604089013567ffffffffffffffff811115610f5457610f53610cc0565b5b610f608b828c01610e3b565b965050606089013567ffffffffffffffff811115610f8157610f80610cc0565b5b610f8d8b828c01610e3b565b9550506080610f9e8b828c01610e8a565b94505060a0610faf8b828c01610ec2565b93505060c0610fc08b828c01610ec2565b92505060e0610fd18b828c01610e8a565b9150509295985092959890939650565b60008060408385031215610ff857610ff7610cbb565b5b600061100685828601610e8a565b925050602061101785828601610e8a565b9150509250929050565b6000806040838503121561103857611037610cbb565b5b600061104685828601610e8a565b925050602061105785828601610ec2565b9150509250929050565b60006020828403121561107757611076610cbb565b5b600061108584828501610e8a565b91505092915050565b600081519050919050565b600082825260208201905092915050565b60005b838110156110c85780820151818401526020810190506110ad565b838111156110d7576000848401525b50505050565b60006110e88261108e565b6110f28185611099565b93506111028185602086016110aa565b61110b81610d2d565b840191505092915050565b61111f81610e69565b82525050565b61112e81610e9f565b82525050565b61113d81610ce5565b82525050565b600061014082019050818103600083015261115e818d6110dd565b90508181036020830152611172818c6110dd565b9050611181604083018b611116565b8181036060830152611193818a6110dd565b90506111a26080830189611125565b6111af60a0830188611125565b6111bc60c0830187611116565b6111c960e0830186611134565b6111d7610100830185611116565b6111e5610120830184611116565b9b9a5050505050505050505050565b7f4e487b7100000000000000000000000000000000000000000000000000000000600052601160045260246000fd5b600061122e82610e69565b91507fffffffffffffffffffffffffffffffffffffffffffffffffffffffffffffffff82036112605761125f6111f4565b5b600182019050919050565b600060c082019050818103600083015261128581896110dd565b9050818103602083015261129981886110dd565b905081810360408301526112ad81876110dd565b90506112bc6060830186611116565b6112c96080830185611125565b6112d660a0830184611116565b979650505050505050565b60006020820190506112f66000830184611116565b92915050565b60006020820190506113116000830184611125565b92915050565b7f546f6b656e20646f6573206e6f74206578697374000000000000000000000000600082015250565b600061134d601483611099565b915061135882611317565b602082019050919050565b6000602082019050818103600083015261137c81611340565b9050919050565b7f546f6b656e206973206e6f7420617661696c61626c6520666f722072656e7400600082015250565b60006113b9601f83611099565b91506113c482611383565b602082019050919050565b600060208201905081810360008301526113e8816113ac565b9050919050565b7f546f6b656e20697320616c72656164792072656e746564000000000000000000600082015250565b6000611425601783611099565b9150611430826113ef565b602082019050919050565b6000602082019050818103600083015261145481611418565b9050919050565b600061146682610e69565b915061147183610e69565b9250817fffffffffffffffffffffffffffffffffffffffffffffffffffffffffffffffff04831182151516156114aa576114a96111f4565b5b828202905092915050565b60006114c082610e69565b91506114cb83610e69565b9250827fffffffffffffffffffffffffffffffffffffffffffffffffffffffffffffffff03821115611500576114ff6111f4565b5b828201905092915050565b7f546f6b656e206973206e6f742063757272656e746c792072656e746564000000600082015250565b6000611541601d83611099565b915061154c8261150b565b602082019050919050565b6000602082019050818103600083015261157081611534565b9050919050565b7f4f6e6c79207468652063757272656e742072656e7465722063616e20656e642060008201527f7468652072656e74000000000000000000000000000000000000000000000000602082015250565b60006115d3602883611099565b91506115de82611577565b604082019050919050565b60006020820190508181036000830152611602816115c6565b9050919050565b7f4e487b7100000000000000000000000000000000000000000000000000000000600052602260045260246000fd5b6000600282049050600182168061165057607f821691505b60208210810361166357611662611609565b5b5091905056fea2646970667358221220602f20628860c8a02496598975a44e1d7891ae82479c510a00689ca10a69b4c264736f6c634300080d0033",
  "immutableReferences": {},
  "source": "// SPDX-License-Identifier: MIT\r\npragma solidity >=0.4.22 <0.9.0;\r\n\r\n\r\n\r\ncontract RealEstateToken {\r\n    uint256 private _tokenIdCounter;\r\n\r\n    struct RealEstateAsset {\r\n        string propertyAddress;\r\n        string description;\r\n        string imageURL;\r\n        uint256 price;\r\n        bool forSale;\r\n        bool forRent;\r\n        uint256 rentPrice;\r\n        address currentRenter;\r\n        uint256 rentalDuration; \r\n        uint256 rentalEndTime;  \r\n    }\r\n\r\n    mapping (uint256 => RealEstateAsset) private _tokenAssets;\r\n\r\n    event TokenMinted(\r\n        uint256 indexed tokenId,\r\n        address indexed owner,\r\n        string propertyAddress,\r\n        string description,\r\n        string imageURL,\r\n        uint256 price,\r\n        bool forSale,\r\n        uint256 rentPrice\r\n    );\r\n\r\n    event ForSaleStateChanged(uint256 indexed tokenId, bool newForSaleState);\r\n    event ForRentStateChanged(uint256 indexed tokenId, bool newForRentState);\r\n    event PriceChanged(uint256 indexed tokenId, uint256 newPrice);\r\n    event RentPriceChanged(uint256 indexed tokenId, uint256 newRentPrice);\r\n    event RentStarted(uint256 indexed tokenId, address indexed renter, uint256 rentalDuration);\r\n    event RentEnded(uint256 indexed tokenId, address indexed renter);\r\n\r\n    \r\n\r\n    function mint(\r\n        address to,\r\n        string memory propertyAddress,\r\n        string memory description,\r\n        string memory imageURL,\r\n        uint256 price,\r\n        bool forSale,\r\n        bool forRent,\r\n        uint256 rentPrice\r\n    ) public {\r\n        _tokenIdCounter++;\r\n\r\n        RealEstateAsset memory asset = RealEstateAsset({\r\n            propertyAddress: propertyAddress,\r\n            description: description,\r\n            imageURL: imageURL,\r\n            price: price,\r\n            forSale: forSale,\r\n            forRent: forRent,\r\n            rentPrice: rentPrice,\r\n            currentRenter: address(0),\r\n            rentalDuration: 0,\r\n            rentalEndTime: 0\r\n        });\r\n\r\n        _tokenAssets[_tokenIdCounter] = asset;\r\n\r\n        emit TokenMinted(_tokenIdCounter, to, propertyAddress, description, imageURL, price, forSale, rentPrice);\r\n    }\r\n\r\n    function getTokenInfo(uint256 _tokenId) external view returns (\r\n        string memory propertyAddress,\r\n        string memory description,\r\n        uint256 price,\r\n        string memory imageURL,\r\n        bool forSale,\r\n        bool forRent,\r\n        uint256 rentPrice,\r\n        address currentRenter,\r\n        uint256 rentalDuration,\r\n        uint256 rentalEndTime\r\n    ) {\r\n        RealEstateAsset storage asset = _tokenAssets[_tokenId];\r\n        propertyAddress = asset.propertyAddress;\r\n        description = asset.description;\r\n        price = asset.price;\r\n        imageURL = asset.imageURL;\r\n        forSale = asset.forSale;\r\n        forRent = asset.forRent;\r\n        rentPrice = asset.rentPrice;\r\n        currentRenter = asset.currentRenter;\r\n        rentalDuration = asset.rentalDuration;\r\n        rentalEndTime = asset.rentalEndTime;\r\n    }\r\n\r\n    function changeForSaleState(uint256 _tokenId, bool newForSaleState) external  {\r\n        _tokenAssets[_tokenId].forSale = newForSaleState;\r\n        emit ForSaleStateChanged(_tokenId, newForSaleState);\r\n    }\r\n\r\n    function changeForRentState(uint256 _tokenId, bool newForRentState) external  {\r\n        _tokenAssets[_tokenId].forRent = newForRentState;\r\n        emit ForRentStateChanged(_tokenId, newForRentState);\r\n    }\r\n\r\n    function changePrice(uint256 _tokenId, uint256 newPrice) external  {\r\n        _tokenAssets[_tokenId].price = newPrice;\r\n        emit PriceChanged(_tokenId, newPrice);\r\n    }\r\n\r\n    function changeRentPrice(uint256 _tokenId, uint256 newRentPrice) external  {\r\n        _tokenAssets[_tokenId].rentPrice = newRentPrice;\r\n        emit RentPriceChanged(_tokenId, newRentPrice);\r\n    }\r\n\r\n    function rent(uint256 _tokenId, uint256 durationInDays) external {\r\n        require(_tokenExists(_tokenId), \"Token does not exist\");\r\n        require(_tokenAssets[_tokenId].forRent, \"Token is not available for rent\");\r\n        require(!_isRented(_tokenId), \"Token is already rented\");\r\n        \r\n        \r\n        uint256 rentalEndTime = block.timestamp + (durationInDays * 1 days);\r\n\r\n        _tokenAssets[_tokenId].currentRenter = msg.sender;\r\n        _tokenAssets[_tokenId].rentalDuration = durationInDays;\r\n        _tokenAssets[_tokenId].rentalEndTime = rentalEndTime;\r\n\r\n        emit RentStarted(_tokenId, msg.sender, durationInDays);\r\n    }\r\n\r\n    function endRent(uint256 _tokenId) external {\r\n        require(_isRented(_tokenId), \"Token is not currently rented\");\r\n        require(msg.sender == _tokenAssets[_tokenId].currentRenter, \"Only the current renter can end the rent\");\r\n\r\n        _tokenAssets[_tokenId].currentRenter = address(0);\r\n        _tokenAssets[_tokenId].rentalDuration = 0;\r\n        _tokenAssets[_tokenId].rentalEndTime = 0;\r\n\r\n        emit RentEnded(_tokenId, msg.sender);\r\n    }\r\n\r\n    function _isRented(uint256 _tokenId) internal view returns (bool) {\r\n        return (_tokenAssets[_tokenId].currentRenter != address(0) && _tokenAssets[_tokenId].rentalEndTime > block.timestamp);\r\n    }\r\n\r\n    function _tokenExists(uint256 _tokenId) internal view returns (bool) {\r\n        return (_tokenAssets[_tokenId].currentRenter != address(0));\r\n    }\r\n}",
  "sourcePath": "C:\\Users\\justa\\Documents\\Studijos\\2ndYR\\blockChain\\4 darbas\\web3-tickets\\contracts\\RealEstate.sol",
  "compiler": {
    "name": "solc",
    "version": "0.8.13+commit.abaa5c0e.Emscripten.clang"
  },
  "schemaVersion": "3.4.16",
  "updatedAt": "2023-12-20T23:37:29.418Z",
  "devdoc": {
    "kind": "dev",
    "methods": {},
    "version": 1
  },
  "userdoc": {
    "kind": "user",
    "methods": {},
    "version": 1
  }
}